{
  "contractName": "DappToken",
  "abi": [
    {
      "constant": true,
      "inputs": [],
      "name": "totalSupply",
      "outputs": [
        {
          "name": "",
          "type": "uint256"
        }
      ],
      "payable": false,
      "stateMutability": "view",
      "type": "function"
    },
    {
      "inputs": [],
      "payable": false,
      "stateMutability": "nonpayable",
      "type": "constructor"
    }
  ],
  "bytecode": "0x60606040523415600e57600080fd5b620f4240600081905550609c806100266000396000f300606060405260043610603f576000357c0100000000000000000000000000000000000000000000000000000000900463ffffffff16806318160ddd146044575b600080fd5b3415604e57600080fd5b6054606a565b6040518082815260200191505060405180910390f35b600054815600a165627a7a72305820975c2209027c020ea72ab99fb6eba30112c35395398c1fc4b0bdb848bcf8297a0029",
  "source": "pragma solidity ^0.4.2;\n\n//ERC-20 standard\n\ncontract DappToken{\n  // Constructor\n  // Set the total number of tokens\n  //Read the total number of tokens\n  uint256 public totalSupply;\n\n  function DappToken() public{\n    totalSupply = 1000000;\n\n  }\n}\n",
  "sourcePath": "/Users/avinashgupta/Documents/UNSW/Sem4/COMP9900/token_sale/contracts/DappToken.sol",
  "compiler": {
    "name": "solc",
    "version": "0.4.19+commit.c4cbbb05.Emscripten.clang"
  },
  "schemaVersion": "2.0.0",
  "updatedAt": "2018-04-22T10:05:41.471Z"
}