{
  "contractName": "DappToken",
  "abi": [
    {
      "constant": true,
      "inputs": [],
      "name": "totalSupply",
      "outputs": [
        {
          "name": "",
          "type": "uint256"
        }
      ],
      "payable": false,
      "stateMutability": "view",
      "type": "function"
    },
    {
      "inputs": [
        {
          "name": "_initialSupply",
          "type": "uint256"
        }
      ],
      "payable": false,
      "stateMutability": "nonpayable",
      "type": "constructor"
    }
  ],
  "bytecode": "0x6060604052341561000f57600080fd5b6040516020806100dd833981016040528080519060200190919050508060008190555050609c806100416000396000f300606060405260043610603f576000357c0100000000000000000000000000000000000000000000000000000000900463ffffffff16806318160ddd146044575b600080fd5b3415604e57600080fd5b6054606a565b6040518082815260200191505060405180910390f35b600054815600a165627a7a72305820072884b58f3a8156e00ea91f84b50a29947b96d248d9713832de3c3bd201ab3c0029",
  "source": "pragma solidity ^0.4.2;\n\n//ERC-20 standard\n\ncontract DappToken{\n  // Constructor\n  // Set the total number of tokens\n  //Read the total number of tokens\n  uint256 public totalSupply;\n\n  //\n  function DappToken(uint256 _initialSupply) public{\n    totalSupply = _initialSupply;\n\n  }\n}\n",
  "sourcePath": "/Users/avinashgupta/Documents/UNSW/Sem4/COMP9900/token_sale/contracts/DappToken.sol",
  "compiler": {
    "name": "solc",
    "version": "0.4.19+commit.c4cbbb05.Emscripten.clang"
  },
  "schemaVersion": "2.0.0",
  "updatedAt": "2018-04-22T10:27:02.438Z"
}