{
  "contractName": "DappTokenSale",
  "abi": [
    {
      "constant": true,
      "inputs": [],
      "name": "tokenContract",
      "outputs": [
        {
          "name": "",
          "type": "address"
        }
      ],
      "payable": false,
      "stateMutability": "view",
      "type": "function"
    },
    {
      "inputs": [
        {
          "name": "_tokenContract",
          "type": "address"
        }
      ],
      "payable": false,
      "stateMutability": "nonpayable",
      "type": "constructor"
    }
  ],
  "bytecode": "0x6060604052341561000f57600080fd5b6040516020806101a383398101604052808051906020019091905050336000806101000a81548173ffffffffffffffffffffffffffffffffffffffff021916908373ffffffffffffffffffffffffffffffffffffffff16021790555080600160006101000a81548173ffffffffffffffffffffffffffffffffffffffff021916908373ffffffffffffffffffffffffffffffffffffffff1602179055505060e8806100bb6000396000f300606060405260043610603f576000357c0100000000000000000000000000000000000000000000000000000000900463ffffffff16806355a373d6146044575b600080fd5b3415604e57600080fd5b60546096565b604051808273ffffffffffffffffffffffffffffffffffffffff1673ffffffffffffffffffffffffffffffffffffffff16815260200191505060405180910390f35b600160009054906101000a900473ffffffffffffffffffffffffffffffffffffffff16815600a165627a7a72305820c4a7ead2b086caf322d3a961f860185996f306031932c96bbb74bddb0a1c84d60029",
  "source": "pragma solidity ^0.4.2;\n\nimport \"./DappToken.sol\";\n\ncontract DappTokenSale{\n  address admin;\n  DappToken public tokenContract;\n\n  function DappTokenSale(DappToken _tokenContract) public{\n\n    // Assign an admin\n    admin = msg.sender;\n\n    // Token contract\n    tokenContract = _tokenContract;\n\n    // Token price\n\n  }\n}\n",
  "sourcePath": "/Users/avinashgupta/Documents/UNSW/Sem4/COMP9900/token_sale/contracts/DappTokenSale.sol",
  "compiler": {
    "name": "solc",
    "version": "0.4.19+commit.c4cbbb05.Emscripten.clang"
  },
  "schemaVersion": "2.0.0",
  "updatedAt": "2018-04-24T10:17:50.803Z"
}